{
  "_format": "hh-sol-artifact-1",
  "contractName": "ATokenManager",
  "sourceName": "contracts/YourContract.sol",
  "abi": [
    {
      "inputs": [],
      "stateMutability": "nonpayable",
      "type": "constructor"
    },
    {
      "inputs": [
        {
          "internalType": "address",
          "name": "owner",
          "type": "address"
        }
      ],
      "name": "OwnableInvalidOwner",
      "type": "error"
    },
    {
      "inputs": [
        {
          "internalType": "address",
          "name": "account",
          "type": "address"
        }
      ],
      "name": "OwnableUnauthorizedAccount",
      "type": "error"
    },
    {
      "anonymous": false,
      "inputs": [
        {
          "indexed": true,
          "internalType": "address",
          "name": "user",
          "type": "address"
        },
        {
          "indexed": true,
          "internalType": "address",
          "name": "asset",
          "type": "address"
        },
        {
          "indexed": false,
          "internalType": "uint256",
          "name": "amount",
          "type": "uint256"
        }
      ],
      "name": "ATokensBurned",
      "type": "event"
    },
    {
      "anonymous": false,
      "inputs": [
        {
          "indexed": true,
          "internalType": "address",
          "name": "user",
          "type": "address"
        },
        {
          "indexed": true,
          "internalType": "address",
          "name": "asset",
          "type": "address"
        },
        {
          "indexed": false,
          "internalType": "uint256",
          "name": "amount",
          "type": "uint256"
        },
        {
          "indexed": false,
          "internalType": "uint256",
          "name": "positionId",
          "type": "uint256"
        }
      ],
      "name": "ATokensMinted",
      "type": "event"
    },
    {
      "anonymous": false,
      "inputs": [
        {
          "indexed": true,
          "internalType": "address",
          "name": "previousOwner",
          "type": "address"
        },
        {
          "indexed": true,
          "internalType": "address",
          "name": "newOwner",
          "type": "address"
        }
      ],
      "name": "OwnershipTransferred",
      "type": "event"
    },
    {
      "anonymous": false,
      "inputs": [
        {
          "indexed": true,
          "internalType": "address",
          "name": "portfolio",
          "type": "address"
        }
      ],
      "name": "PortfolioAuthorized",
      "type": "event"
    },
    {
      "inputs": [
        {
          "internalType": "address",
          "name": "portfolio",
          "type": "address"
        }
      ],
      "name": "authorizePortfolio",
      "outputs": [],
      "stateMutability": "nonpayable",
      "type": "function"
    },
    {
      "inputs": [
        {
          "internalType": "address",
          "name": "",
          "type": "address"
        }
      ],
      "name": "authorizedPortfolios",
      "outputs": [
        {
          "internalType": "bool",
          "name": "",
          "type": "bool"
        }
      ],
      "stateMutability": "view",
      "type": "function"
    },
    {
      "inputs": [
        {
          "internalType": "address",
          "name": "from",
          "type": "address"
        },
        {
          "internalType": "address",
          "name": "asset",
          "type": "address"
        },
        {
          "internalType": "uint256",
          "name": "amount",
          "type": "uint256"
        }
      ],
      "name": "burnATokens",
      "outputs": [],
      "stateMutability": "nonpayable",
      "type": "function"
    },
    {
      "inputs": [],
      "name": "factory",
      "outputs": [
        {
          "internalType": "address",
          "name": "",
          "type": "address"
        }
      ],
      "stateMutability": "view",
      "type": "function"
    },
    {
      "inputs": [
        {
          "internalType": "address",
          "name": "user",
          "type": "address"
        },
        {
          "internalType": "address",
          "name": "asset",
          "type": "address"
        }
      ],
      "name": "getBalance",
      "outputs": [
        {
          "internalType": "uint256",
          "name": "",
          "type": "uint256"
        }
      ],
      "stateMutability": "view",
      "type": "function"
    },
    {
      "inputs": [
        {
          "internalType": "address",
          "name": "user",
          "type": "address"
        }
      ],
      "name": "getUserPositions",
      "outputs": [
        {
          "internalType": "uint256[]",
          "name": "",
          "type": "uint256[]"
        }
      ],
      "stateMutability": "view",
      "type": "function"
    },
    {
      "inputs": [
        {
          "internalType": "address",
          "name": "to",
          "type": "address"
        },
        {
          "internalType": "address",
          "name": "asset",
          "type": "address"
        },
        {
          "internalType": "uint256",
          "name": "amount",
          "type": "uint256"
        },
        {
          "internalType": "uint256",
          "name": "positionId",
          "type": "uint256"
        }
      ],
      "name": "mintATokens",
      "outputs": [],
      "stateMutability": "nonpayable",
      "type": "function"
    },
    {
      "inputs": [],
      "name": "owner",
      "outputs": [
        {
          "internalType": "address",
          "name": "",
          "type": "address"
        }
      ],
      "stateMutability": "view",
      "type": "function"
    },
    {
      "inputs": [],
      "name": "renounceOwnership",
      "outputs": [],
      "stateMutability": "nonpayable",
      "type": "function"
    },
    {
      "inputs": [
        {
          "internalType": "address",
          "name": "_factory",
          "type": "address"
        }
      ],
      "name": "setFactory",
      "outputs": [],
      "stateMutability": "nonpayable",
      "type": "function"
    },
    {
      "inputs": [
        {
          "internalType": "address",
          "name": "newOwner",
          "type": "address"
        }
      ],
      "name": "transferOwnership",
      "outputs": [],
      "stateMutability": "nonpayable",
      "type": "function"
    },
    {
      "inputs": [
        {
          "internalType": "address",
          "name": "",
          "type": "address"
        },
        {
          "internalType": "address",
          "name": "",
          "type": "address"
        }
      ],
      "name": "userAssetBalances",
      "outputs": [
        {
          "internalType": "uint256",
          "name": "",
          "type": "uint256"
        }
      ],
      "stateMutability": "view",
      "type": "function"
    },
    {
      "inputs": [
        {
          "internalType": "address",
          "name": "",
          "type": "address"
        },
        {
          "internalType": "uint256",
          "name": "",
          "type": "uint256"
        }
      ],
      "name": "userPositions",
      "outputs": [
        {
          "internalType": "uint256",
          "name": "",
          "type": "uint256"
        }
      ],
      "stateMutability": "view",
      "type": "function"
    }
  ],
  "bytecode": "0x608060405234801561001057600080fd5b50338061003757604051631e4fbdf760e01b81526000600482015260240160405180910390fd5b61004081610046565b50610096565b600080546001600160a01b038381166001600160a01b0319831681178455604051919092169283917f8be0079c531659141344cd1fd0a4f28419497f9722a3daafe3b4186f6b6457e09190a35050565b610911806100a56000396000f3fe608060405234801561001057600080fd5b50600436106100cf5760003560e01c8063715018a61161008c578063b0f80c7311610066578063b0f80c73146101cc578063c45a0155146101f7578063d4fac45d1461020a578063f2fde38b1461021d57600080fd5b8063715018a61461016c57806379cfbf90146101745780638da5cb5b146101a757600080fd5b806318505334146100d45780632a6bc2dd146100e95780633c80d14c1461011257806349087526146101255780635bb47808146101385780635e1b4d991461014b575b600080fd5b6100e76100e236600461075e565b610230565b005b6100fc6100f736600461075e565b6102ca565b6040516101099190610780565b60405180910390f35b6100e76101203660046107c4565b610336565b6100e7610133366004610806565b61043d565b6100e761014636600461075e565b61059c565b61015e610159366004610842565b610615565b604051908152602001610109565b6100e7610646565b61019761018236600461075e565b60036020526000908152604090205460ff1681565b6040519015158152602001610109565b6000546001600160a01b03165b6040516001600160a01b039091168152602001610109565b61015e6101da36600461086c565b600160209081526000928352604080842090915290825290205481565b6004546101b4906001600160a01b031681565b61015e61021836600461086c565b61065a565b6100e761022b36600461075e565b610687565b6004546001600160a01b0316331461027e5760405162461bcd60e51b815260206004820152600c60248201526b4f6e6c7920666163746f727960a01b60448201526064015b60405180910390fd5b6001600160a01b038116600081815260036020526040808220805460ff19166001179055517fd8cb9e35a6987559f58339d27d369c214805a571e80c22bf95869c2276d32f1a9190a250565b6001600160a01b03811660009081526002602090815260409182902080548351818402810184019094528084526060939283018282801561032a57602002820191906000526020600020905b815481526020019060010190808311610316575b50505050509050919050565b3360009081526003602052604090205460ff166103905760405162461bcd60e51b81526020600482015260186024820152774e6f7420617574686f72697a656420706f7274666f6c696f60401b6044820152606401610275565b6001600160a01b038085166000908152600160209081526040808320938716835292905290812080548492906103c79084906108b5565b90915550506001600160a01b0384811660008181526002602090815260408083208054600181018255908452928290209092018590558151868152908101859052928616927f4f0aef9f35626950ae5a7dd337fd96dddad530535bafd286e5bdb6a10c0356d2910160405180910390a350505050565b3360009081526003602052604090205460ff166104975760405162461bcd60e51b81526020600482015260186024820152774e6f7420617574686f72697a656420706f7274666f6c696f60401b6044820152606401610275565b6001600160a01b0380841660009081526001602090815260408083209386168352929052205481111561050c5760405162461bcd60e51b815260206004820152601b60248201527f496e73756666696369656e742061546f6b656e2062616c616e636500000000006044820152606401610275565b6001600160a01b038084166000908152600160209081526040808320938616835292905290812080548392906105439084906108c8565b92505081905550816001600160a01b0316836001600160a01b03167fc1ac0625acd2a4679a273da8080b713d410d107f17f11a44a9d4c0a5f648f9338360405161058f91815260200190565b60405180910390a3505050565b6105a46106c5565b6004546001600160a01b0316156105f35760405162461bcd60e51b8152602060048201526013602482015272119858dd1bdc9e48185b1c9958591e481cd95d606a1b6044820152606401610275565b600480546001600160a01b0319166001600160a01b0392909216919091179055565b6002602052816000526040600020818154811061063157600080fd5b90600052602060002001600091509150505481565b61064e6106c5565b61065860006106f2565b565b6001600160a01b038083166000908152600160209081526040808320938516835292905220545b92915050565b61068f6106c5565b6001600160a01b0381166106b957604051631e4fbdf760e01b815260006004820152602401610275565b6106c2816106f2565b50565b6000546001600160a01b031633146106585760405163118cdaa760e01b8152336004820152602401610275565b600080546001600160a01b038381166001600160a01b0319831681178455604051919092169283917f8be0079c531659141344cd1fd0a4f28419497f9722a3daafe3b4186f6b6457e09190a35050565b80356001600160a01b038116811461075957600080fd5b919050565b60006020828403121561077057600080fd5b61077982610742565b9392505050565b6020808252825182820181905260009190848201906040850190845b818110156107b85783518352928401929184019160010161079c565b50909695505050505050565b600080600080608085870312156107da57600080fd5b6107e385610742565b93506107f160208601610742565b93969395505050506040820135916060013590565b60008060006060848603121561081b57600080fd5b61082484610742565b925061083260208501610742565b9150604084013590509250925092565b6000806040838503121561085557600080fd5b61085e83610742565b946020939093013593505050565b6000806040838503121561087f57600080fd5b61088883610742565b915061089660208401610742565b90509250929050565b634e487b7160e01b600052601160045260246000fd5b808201808211156106815761068161089f565b818103818111156106815761068161089f56fea26469706673582212204c585ec05a0f8a229e2f07a933453c18d0f1b54a942e6e5f1e46c2f78f911c4f64736f6c63430008140033",
  "linkReferences": {},
  "deployedLinkReferences": {}
}