{
  "_format": "hh-sol-artifact-1",
  "contractName": "PatrimoFactory",
  "sourceName": "contracts/YourContract.sol",
  "abi": [
    {
      "inputs": [
        {
          "internalType": "address",
          "name": "_aTokenManager",
          "type": "address"
        }
      ],
      "stateMutability": "nonpayable",
      "type": "constructor"
    },
    {
      "inputs": [
        {
          "internalType": "address",
          "name": "owner",
          "type": "address"
        }
      ],
      "name": "OwnableInvalidOwner",
      "type": "error"
    },
    {
      "inputs": [
        {
          "internalType": "address",
          "name": "account",
          "type": "address"
        }
      ],
      "name": "OwnableUnauthorizedAccount",
      "type": "error"
    },
    {
      "anonymous": false,
      "inputs": [
        {
          "indexed": true,
          "internalType": "address",
          "name": "advisor",
          "type": "address"
        }
      ],
      "name": "AdvisorRevoked",
      "type": "event"
    },
    {
      "anonymous": false,
      "inputs": [
        {
          "indexed": true,
          "internalType": "address",
          "name": "advisor",
          "type": "address"
        }
      ],
      "name": "AdvisorVerified",
      "type": "event"
    },
    {
      "anonymous": false,
      "inputs": [
        {
          "indexed": true,
          "internalType": "address",
          "name": "previousOwner",
          "type": "address"
        },
        {
          "indexed": true,
          "internalType": "address",
          "name": "newOwner",
          "type": "address"
        }
      ],
      "name": "OwnershipTransferred",
      "type": "event"
    },
    {
      "anonymous": false,
      "inputs": [
        {
          "indexed": true,
          "internalType": "address",
          "name": "investor",
          "type": "address"
        },
        {
          "indexed": true,
          "internalType": "address",
          "name": "portfolioManager",
          "type": "address"
        },
        {
          "indexed": true,
          "internalType": "address",
          "name": "advisor",
          "type": "address"
        }
      ],
      "name": "PortfolioManagerCreated",
      "type": "event"
    },
    {
      "inputs": [],
      "name": "aTokenManager",
      "outputs": [
        {
          "internalType": "address",
          "name": "",
          "type": "address"
        }
      ],
      "stateMutability": "view",
      "type": "function"
    },
    {
      "inputs": [
        {
          "internalType": "address",
          "name": "_advisor",
          "type": "address"
        }
      ],
      "name": "createPortfolioManager",
      "outputs": [
        {
          "internalType": "address",
          "name": "",
          "type": "address"
        }
      ],
      "stateMutability": "nonpayable",
      "type": "function"
    },
    {
      "inputs": [
        {
          "internalType": "address",
          "name": "_investor",
          "type": "address"
        }
      ],
      "name": "getInvestorPortfolios",
      "outputs": [
        {
          "internalType": "address[]",
          "name": "",
          "type": "address[]"
        }
      ],
      "stateMutability": "view",
      "type": "function"
    },
    {
      "inputs": [
        {
          "internalType": "address",
          "name": "",
          "type": "address"
        },
        {
          "internalType": "uint256",
          "name": "",
          "type": "uint256"
        }
      ],
      "name": "investorPortfolios",
      "outputs": [
        {
          "internalType": "address",
          "name": "",
          "type": "address"
        }
      ],
      "stateMutability": "view",
      "type": "function"
    },
    {
      "inputs": [
        {
          "internalType": "address",
          "name": "",
          "type": "address"
        }
      ],
      "name": "isPortfolioManager",
      "outputs": [
        {
          "internalType": "bool",
          "name": "",
          "type": "bool"
        }
      ],
      "stateMutability": "view",
      "type": "function"
    },
    {
      "inputs": [],
      "name": "owner",
      "outputs": [
        {
          "internalType": "address",
          "name": "",
          "type": "address"
        }
      ],
      "stateMutability": "view",
      "type": "function"
    },
    {
      "inputs": [],
      "name": "portfolioCount",
      "outputs": [
        {
          "internalType": "uint256",
          "name": "",
          "type": "uint256"
        }
      ],
      "stateMutability": "view",
      "type": "function"
    },
    {
      "inputs": [],
      "name": "renounceOwnership",
      "outputs": [],
      "stateMutability": "nonpayable",
      "type": "function"
    },
    {
      "inputs": [
        {
          "internalType": "address",
          "name": "_advisor",
          "type": "address"
        }
      ],
      "name": "revokeAdvisor",
      "outputs": [],
      "stateMutability": "nonpayable",
      "type": "function"
    },
    {
      "inputs": [
        {
          "internalType": "address",
          "name": "newOwner",
          "type": "address"
        }
      ],
      "name": "transferOwnership",
      "outputs": [],
      "stateMutability": "nonpayable",
      "type": "function"
    },
    {
      "inputs": [
        {
          "internalType": "address",
          "name": "",
          "type": "address"
        }
      ],
      "name": "verifiedAdvisors",
      "outputs": [
        {
          "internalType": "bool",
          "name": "",
          "type": "bool"
        }
      ],
      "stateMutability": "view",
      "type": "function"
    },
    {
      "inputs": [
        {
          "internalType": "address",
          "name": "_advisor",
          "type": "address"
        }
      ],
      "name": "verifyAdvisor",
      "outputs": [],
      "stateMutability": "nonpayable",
      "type": "function"
    }
  ],
  "bytecode": "0x608060405234801561001057600080fd5b506040516123a73803806123a783398101604081905261002f916100d4565b338061005557604051631e4fbdf760e01b81526000600482015260240160405180910390fd5b61005e81610084565b50600480546001600160a01b0319166001600160a01b0392909216919091179055610104565b600080546001600160a01b038381166001600160a01b0319831681178455604051919092169283917f8be0079c531659141344cd1fd0a4f28419497f9722a3daafe3b4186f6b6457e09190a35050565b6000602082840312156100e657600080fd5b81516001600160a01b03811681146100fd57600080fd5b9392505050565b612294806101136000396000f3fe608060405234801561001057600080fd5b50600436106100b45760003560e01c8063715018a611610071578063715018a61461017b5780638da5cb5b14610183578063b3fd7eb514610194578063d1fe3e04146101b7578063d6ac3447146101ca578063f2fde38b146101dd57600080fd5b80630408f210146100b95780631fcf56f2146100ce5780632e499162146100ea5780633a22a211146100fd57806340fc553014610128578063495a83fe1461015b575b600080fd5b6100cc6100c7366004610606565b6101f0565b005b6100d760055481565b6040519081526020015b60405180910390f35b6100cc6100f8366004610606565b610241565b61011061010b366004610628565b610295565b6040516001600160a01b0390911681526020016100e1565b61014b610136366004610606565b60026020526000908152604090205460ff1681565b60405190151581526020016100e1565b61016e610169366004610606565b6102cd565b6040516100e19190610652565b6100cc610343565b6000546001600160a01b0316610110565b61014b6101a2366004610606565b60036020526000908152604090205460ff1681565b6101106101c5366004610606565b610357565b600454610110906001600160a01b031681565b6100cc6101eb366004610606565b610522565b6101f8610560565b6001600160a01b038116600081815260036020526040808220805460ff19169055517f923d07389032046cb2d33df341752a1a287ad8261608e075393004c203c48dee9190a250565b610249610560565b6001600160a01b038116600081815260036020526040808220805460ff19166001179055517f5faf7d05d447530707f8a49f4ed7da95cf05495360ba4bc1caa25c36e4e1fb699190a250565b600160205281600052604060002081815481106102b157600080fd5b6000918252602090912001546001600160a01b03169150829050565b6001600160a01b03811660009081526001602090815260409182902080548351818402810184019094528084526060939283018282801561033757602002820191906000526020600020905b81546001600160a01b03168152600190910190602001808311610319575b50505050509050919050565b61034b610560565b610355600061058d565b565b6001600160a01b03811660009081526003602052604081205460ff166103bb5760405162461bcd60e51b815260206004820152601460248201527310591d9a5cdbdc881b9bdd081d995c9a599a595960621b60448201526064015b60405180910390fd5b600454604051600091339185916001600160a01b0316906103db906105dd565b6001600160a01b03938416815291831660208301529091166040820152606001604051809103906000f080158015610417573d6000803e3d6000fd5b50336000908152600160208181526040808420805480850182559085528285200180546001600160a01b0319166001600160a01b038716908117909155845260029091528220805460ff191690911790556005805492935083929161047b8361069f565b90915550506004805460405163061414cd60e21b81526001600160a01b0384811693820193909352911690631850533490602401600060405180830381600087803b1580156104c957600080fd5b505af11580156104dd573d6000803e3d6000fd5b50506040516001600160a01b0380881693508416915033907f0905e4b705b288e2419d3b0e48a62f3c2bb18e49907df031e74a2bfa49d75c1790600090a49392505050565b61052a610560565b6001600160a01b03811661055457604051631e4fbdf760e01b8152600060048201526024016103b2565b61055d8161058d565b50565b6000546001600160a01b031633146103555760405163118cdaa760e01b81523360048201526024016103b2565b600080546001600160a01b038381166001600160a01b0319831681178455604051919092169283917f8be0079c531659141344cd1fd0a4f28419497f9722a3daafe3b4186f6b6457e09190a35050565b611b98806106c783390190565b80356001600160a01b038116811461060157600080fd5b919050565b60006020828403121561061857600080fd5b610621826105ea565b9392505050565b6000806040838503121561063b57600080fd5b610644836105ea565b946020939093013593505050565b6020808252825182820181905260009190848201906040850190845b818110156106935783516001600160a01b03168352928401929184019160010161066e565b50909695505050505050565b6000600182016106bf57634e487b7160e01b600052601160045260246000fd5b506001019056fe60c06040523480156200001157600080fd5b5060405162001b9838038062001b98833981016040819052620000349162000081565b6001600160a01b03928316608052600080546001600160a01b031916928416929092179091551660a052620000cb565b80516001600160a01b03811681146200007c57600080fd5b919050565b6000806000606084860312156200009757600080fd5b620000a28462000064565b9250620000b26020850162000064565b9150620000c26040850162000064565b90509250925092565b60805160a051611a4562000153600039600081816103bf0152818161071b01528181610bf401528181610ca601526111890152600081816103190152818161040c015281816105ba015281816106e4015281816107e9015281816108480152818161092701528181610bbb01528181610c6801528181610e5001526111490152611a456000f3fe6080604052600436106100f75760003560e01c806373f56cda1161008a57806399fbab881161005957806399fbab881461035b578063cea43b0e1461038d578063d6ac3447146103ad578063dbf64d80146103e157600080fd5b806373f56cda146102ba578063867c1247146102da5780638da5cb5b14610307578063939c5f7a1461033b57600080fd5b80635373433f116100c65780635373433f1461022057806363d5ab8d1461026457806369328dec1461027a5780636ff1c9bc1461029a57600080fd5b806309cae2c81461017b57806318f56a0a1461019d5780631936e4be146101c857806347e7ef241461020057600080fd5b3661017657600080805260036020527f3617319a054d772f909f7c479a2cebe5066e836a939412e32403c99029b92eff805434929061013790849061148c565b909155505060405134815233906000907fb4e1304f97b5093610f51b33ddab6622388422e2dac138b0d32f93dcfbd39edf9060200160405180910390a3005b600080fd5b34801561018757600080fd5b5061019b6101963660046114bb565b610401565b005b3480156101a957600080fd5b506101b2610481565b6040516101bf91906114ee565b60405180910390f35b3480156101d457600080fd5b506000546101e8906001600160a01b031681565b6040516001600160a01b0390911681526020016101bf565b34801561020c57600080fd5b5061019b61021b366004611532565b6104d9565b34801561022c57600080fd5b5061025661023b36600461155c565b6001600160a01b031660009081526003602052604090205490565b6040519081526020016101bf565b34801561027057600080fd5b5061025660015481565b34801561028657600080fd5b5061019b610295366004611577565b6105af565b3480156102a657600080fd5b5061019b6102b536600461155c565b6107de565b3480156102c657600080fd5b5061019b6102d53660046115fc565b61094c565b3480156102e657600080fd5b506102566102f536600461155c565b60036020526000908152604090205481565b34801561031357600080fd5b506101e87f000000000000000000000000000000000000000000000000000000000000000081565b34801561034757600080fd5b50610256610356366004611674565b610d56565b34801561036757600080fd5b5061037b610376366004611674565b610d77565b6040516101bf969594939291906116e9565b34801561039957600080fd5b5061019b6103a836600461155c565b610e45565b3480156103b957600080fd5b506101e87f000000000000000000000000000000000000000000000000000000000000000081565b3480156103ed57600080fd5b506102566103fc366004611751565b610f25565b336001600160a01b037f000000000000000000000000000000000000000000000000000000000000000016146104525760405162461bcd60e51b8152600401610449906117c6565b60405180910390fd5b6001600160a01b038216600090815260036020526040902054801561047c5761047c8382846105af565b505050565b606060048054806020026020016040519081016040528092919081815260200182805480156104cf57602002820191906000526020600020905b8154815260200190600101908083116104bb575b5050505050905090565b600081116105295760405162461bcd60e51b815260206004820152601d60248201527f416d6f756e74206d7573742062652067726561746572207468616e20300000006044820152606401610449565b61053e6001600160a01b03831633308461123a565b6001600160a01b0382166000908152600360205260408120805483929061056690849061148c565b909155505060405181815233906001600160a01b038416907fb4e1304f97b5093610f51b33ddab6622388422e2dac138b0d32f93dcfbd39edf9060200160405180910390a35050565b336001600160a01b037f000000000000000000000000000000000000000000000000000000000000000016146105f75760405162461bcd60e51b8152600401610449906117c6565b6001600160a01b0381166106415760405162461bcd60e51b8152602060048201526011602482015270125b9d985b1a59081c9958da5c1a595b9d607a1b6044820152606401610449565b6001600160a01b0383166000908152600360205260409020548211156106a05760405162461bcd60e51b8152602060048201526014602482015273496e73756666696369656e742062616c616e636560601b6044820152606401610449565b6001600160a01b038316600090815260036020526040812080548492906106c89084906117ea565b90915550506040516324843a9360e11b81526001600160a01b037f0000000000000000000000000000000000000000000000000000000000000000811660048301528481166024830152604482018490527f00000000000000000000000000000000000000000000000000000000000000001690634908752690606401600060405180830381600087803b15801561075f57600080fd5b505af1158015610773573d6000803e3d6000fd5b5061078c925050506001600160a01b03841682846112a7565b806001600160a01b0316836001600160a01b03167fcbcdbdf10631a43cc99c80acace8232649421c3f4f73919f16013d47c83a687a846040516107d191815260200190565b60405180910390a3505050565b336001600160a01b037f000000000000000000000000000000000000000000000000000000000000000016146108265760405162461bcd60e51b8152600401610449906117c6565b6001600160a01b03811661089557478015610891576040516001600160a01b037f0000000000000000000000000000000000000000000000000000000000000000169082156108fc029083906000818181858888f1935050505015801561047c573d6000803e3d6000fd5b5050565b6040516370a0823160e01b81523060048201526000906001600160a01b038316906370a0823190602401602060405180830381865afa1580156108dc573d6000803e3d6000fd5b505050506040513d601f19601f8201168201806040525081019061090091906117fd565b90508015610891576001600160a01b038216600081815260036020526040812055610891907f0000000000000000000000000000000000000000000000000000000000000000836112a7565b6000546001600160a01b031633146109955760405162461bcd60e51b815260206004820152600c60248201526b27b7363c9030b23b34b9b7b960a11b6044820152606401610449565b6001600160a01b0386166000908152600360205260409020548511156109fd5760405162461bcd60e51b815260206004820152601d60248201527f496e73756666696369656e742062616c616e636520666f7220737761700000006044820152606401610449565b6001600160a01b03861660009081526003602052604081208054879290610a259084906117ea565b90915550506001600160a01b03841660009081526003602052604081208054859290610a5290849061148c565b925050819055506000600160008154610a6a90611816565b91829055506040805160c0810182528281526001600160a01b0388166020820152908101869052426060820152909150608081016000815260200184848080601f0160208091040260200160405190810160405280939291908181526020018383808284376000920182905250939094525050838152600260208181526040928390208551815590850151600180830180546001600160a01b0319166001600160a01b039093169290921790915592850151918101919091556060840151600382015560808401516004820180549294509092909160ff1916908381811115610b5557610b5561168d565b021790555060a08201516005820190610b6e90826118cd565b50506004805460018101825560008290527f8a35acfbc15ff81a39ae7d344fd709f28e8600b4aa8c65c6b64bfe7fe36bd19b018390556040516324843a9360e11b81526001600160a01b037f00000000000000000000000000000000000000000000000000000000000000008116928201929092528982166024820152604481018990527f00000000000000000000000000000000000000000000000000000000000000009091169150634908752690606401600060405180830381600087803b158015610c3b57600080fd5b505af1158015610c4f573d6000803e3d6000fd5b5050604051630f20345360e21b81526001600160a01b037f000000000000000000000000000000000000000000000000000000000000000081166004830152888116602483015260448201889052606482018590527f0000000000000000000000000000000000000000000000000000000000000000169250633c80d14c9150608401600060405180830381600087803b158015610cec57600080fd5b505af1158015610d00573d6000803e3d6000fd5b50505050846001600160a01b0316817f5aa43b2a7abf6814ddf221523a3305d537dfb959980cc76a8ea416cbc8a2bc7e8660008787604051610d45949392919061198d565b60405180910390a350505050505050565b60048181548110610d6657600080fd5b600091825260209091200154905081565b600260208190526000918252604090912080546001820154928201546003830154600484015460058501805494966001600160a01b0316959394929360ff90921692610dc290611845565b80601f0160208091040260200160405190810160405280929190818152602001828054610dee90611845565b8015610e3b5780601f10610e1057610100808354040283529160200191610e3b565b820191906000526020600020905b815481529060010190602001808311610e1e57829003601f168201915b5050505050905086565b336001600160a01b037f00000000000000000000000000000000000000000000000000000000000000001614610e8d5760405162461bcd60e51b8152600401610449906117c6565b6001600160a01b038116610ed55760405162461bcd60e51b815260206004820152600f60248201526e24b73b30b634b21030b23b34b9b7b960891b6044820152606401610449565b600080546001600160a01b038381166001600160a01b0319831681178455604051919092169283917f283c9dd27ec35a2e3f0a21e2f7dc220e1286f5250a0ff9430691336473167f689190a35050565b600080546001600160a01b03163314610f6f5760405162461bcd60e51b815260206004820152600c60248201526b27b7363c9030b23b34b9b7b960a11b6044820152606401610449565b6001600160a01b038616600090815260036020526040902054851115610fd75760405162461bcd60e51b815260206004820152601a60248201527f496e73756666696369656e742061737365742062616c616e63650000000000006044820152606401610449565b6000600160008154610fe890611816565b91905081905590506040518060c00160405280828152602001886001600160a01b0316815260200187815260200142815260200186600181111561102e5761102e61168d565b815260200185858080601f0160208091040260200160405190810160405280939291908181526020018383808284376000920182905250939094525050838152600260208181526040928390208551815590850151600180830180546001600160a01b0319166001600160a01b039093169290921790915592850151918101919091556060840151600382015560808401516004820180549294509092909160ff19169083818111156110e3576110e361168d565b021790555060a082015160058201906110fc90826118cd565b50506004805460018101825560008290527f8a35acfbc15ff81a39ae7d344fd709f28e8600b4aa8c65c6b64bfe7fe36bd19b01839055604051630f20345360e21b81526001600160a01b037f0000000000000000000000000000000000000000000000000000000000000000811692820192909252898216602482015260448101899052606481018490527f00000000000000000000000000000000000000000000000000000000000000009091169150633c80d14c90608401600060405180830381600087803b1580156111d057600080fd5b505af11580156111e4573d6000803e3d6000fd5b50505050866001600160a01b0316817f5aa43b2a7abf6814ddf221523a3305d537dfb959980cc76a8ea416cbc8a2bc7e88888888604051611228949392919061198d565b60405180910390a39695505050505050565b6040516001600160a01b0384811660248301528381166044830152606482018390526112a19186918216906323b872dd906084015b604051602081830303815290604052915060e01b6020820180516001600160e01b0383818316178352505050506112d8565b50505050565b6040516001600160a01b0383811660248301526044820183905261047c91859182169063a9059cbb9060640161126f565b60006112ed6001600160a01b0384168361133b565b9050805160001415801561131257508080602001905181019061131091906119d1565b155b1561047c57604051635274afe760e01b81526001600160a01b0384166004820152602401610449565b606061134983836000611352565b90505b92915050565b6060814710156113775760405163cd78605960e01b8152306004820152602401610449565b600080856001600160a01b0316848660405161139391906119f3565b60006040518083038185875af1925050503d80600081146113d0576040519150601f19603f3d011682016040523d82523d6000602084013e6113d5565b606091505b50915091506113e58683836113f1565b925050505b9392505050565b606082611406576114018261144d565b6113ea565b815115801561141d57506001600160a01b0384163b155b1561144657604051639996b31560e01b81526001600160a01b0385166004820152602401610449565b50806113ea565b80511561145d5780518082602001fd5b604051630a12f52160e11b815260040160405180910390fd5b634e487b7160e01b600052601160045260246000fd5b8082018082111561134c5761134c611476565b80356001600160a01b03811681146114b657600080fd5b919050565b600080604083850312156114ce57600080fd5b6114d78361149f565b91506114e56020840161149f565b90509250929050565b6020808252825182820181905260009190848201906040850190845b818110156115265783518352928401929184019160010161150a565b50909695505050505050565b6000806040838503121561154557600080fd5b61154e8361149f565b946020939093013593505050565b60006020828403121561156e57600080fd5b6113498261149f565b60008060006060848603121561158c57600080fd5b6115958461149f565b9250602084013591506115aa6040850161149f565b90509250925092565b60008083601f8401126115c557600080fd5b50813567ffffffffffffffff8111156115dd57600080fd5b6020830191508360208285010111156115f557600080fd5b9250929050565b60008060008060008060a0878903121561161557600080fd5b61161e8761149f565b9550602087013594506116336040880161149f565b935060608701359250608087013567ffffffffffffffff81111561165657600080fd5b61166289828a016115b3565b979a9699509497509295939492505050565b60006020828403121561168657600080fd5b5035919050565b634e487b7160e01b600052602160045260246000fd5b600281106116c157634e487b7160e01b600052602160045260246000fd5b9052565b60005b838110156116e05781810151838201526020016116c8565b50506000910152565b8681526001600160a01b0386166020820152604081018590526060810184905261171660808201846116a3565b60c060a0820152600082518060c08401526117388160e08501602087016116c5565b601f01601f19169190910160e001979650505050505050565b60008060008060006080868803121561176957600080fd5b6117728661149f565b94506020860135935060408601356002811061178d57600080fd5b9250606086013567ffffffffffffffff8111156117a957600080fd5b6117b5888289016115b3565b969995985093965092949392505050565b6020808252600a908201526927b7363c9037bbb732b960b11b604082015260600190565b8181038181111561134c5761134c611476565b60006020828403121561180f57600080fd5b5051919050565b60006001820161182857611828611476565b5060010190565b634e487b7160e01b600052604160045260246000fd5b600181811c9082168061185957607f821691505b60208210810361187957634e487b7160e01b600052602260045260246000fd5b50919050565b601f82111561047c57600081815260208120601f850160051c810160208610156118a65750805b601f850160051c820191505b818110156118c5578281556001016118b2565b505050505050565b815167ffffffffffffffff8111156118e7576118e761182f565b6118fb816118f58454611845565b8461187f565b602080601f83116001811461193057600084156119185750858301515b600019600386901b1c1916600185901b1785556118c5565b600085815260208120601f198616915b8281101561195f57888601518255948401946001909101908401611940565b508582101561197d5787850151600019600388901b60f8161c191681555b5050505050600190811b01905550565b84815261199d60208201856116a3565b60606040820152816060820152818360808301376000818301608090810191909152601f909201601f191601019392505050565b6000602082840312156119e357600080fd5b815180151581146113ea57600080fd5b60008251611a058184602087016116c5565b919091019291505056fea26469706673582212205e448b151abcbe1a3f51576326e1fa604ee94db1cfad4e18e75a8c7d982d31cb64736f6c63430008140033a2646970667358221220675d72d6ab98eec197b6e030e9dd459a295ec97eba2f229101ffe4304d4d7b7764736f6c63430008140033",
  "linkReferences": {},
  "deployedLinkReferences": {}
}